:060000000A128A11E12E34
:100DA0007E088A007F088200D0260A128A118000FD
:100DB000840A04087D0603190034FF0A0319FE0A99
:100DC000D42E83136630FD000730FE003230FF0062
:100DD000453084000A128A11D4260A128A1183012E
:100DE0000A128A11532FF10071088312031388002D
:100DF000071087100715F930F0006400F00BFD2E86
:100E0000012F64008312031307110800F100710819
:100E1000831203138800071487100715F930F000B8
:100E20006400F00B102F142F6400831203130711BA
:100E3000080038300A128A11F3260A128A1101308A
:100E40000A128A11F3260A128A1106300A128A112E
:100E5000F3260A128A110C300A128A11F3260A129A
:100E60008A11080020342034203420344D34453495
:100E7000543452344F3441345434203420342034E8
:100E8000203420340034203420344934543427347E
:100E90005334203452344F34423455345334543460
:100EA00020342034003483160313870188010A128A
:100EB0008A1119270A128A11203084004530F20065
:100EC0000408F3001130F400720884008313000852
:100ED000F500F20A7308840075088000F30AF40B29
:100EE000642F80300A128A11F3260A128A11003008
:100EF00083120313C1000030C2004208803AFE0092
:100F000080307E02031D862F10304102031C892F82
:100F10008A2F8B2FAC2F831203134108203E8400AD
:100F2000831300080A128A1106270A128A11013057
:100F300083120313C1070318C20A0030C207420814
:100F4000803AFE0080307E02031DA82F103041023F
:100F5000031CAB2FAC2F8B2F313084005630F200A6
:100F60000408F3001030F4007208840083130008B2
:100F7000F500F20A7308840075088000F30AF40B88
:100F8000B42FC0300A128A11F3260A128A110030D7
:100F900083120313C3000030C4004408803AFE00EB
:100FA00080307E02031DD62F0F304302031CD92F41
:100FB000DA2FDB2FFC2F831203134308313E84000A
:100FC000831300080A128A1106270A128A110130B7
:100FD00083120313C3070318C40A0030C40744086C
:100FE000803AFE0080307E02031DF82F0F3043024E
:100FF000031CFB2FFC2FDB2F5C2F0A128A11002809
:02400E00723FFF
:00000001FF
