:060000000A128A112B2AEE
:1004560083010A128A118B2DF1007108831203138E
:100466008800071087100715F930F0006400F00BBC
:10047600392A3D2A64008312031307110800F1008C
:100486007108831203138800071487100715F930C3
:10049600F0006400F00B4C2A502A64008312031308
:1004A6000711080038300A128A112F220A128A11FF
:1004B60001300A128A112F220A128A1106300A12F4
:1004C6008A112F220A128A110C300A128A112F223F
:1004D6000A128A1108000030F4000030F500701C82
:1004E600752A762A7C2A7208F4070318F50A730817
:1004F600F50701300310F20DF30DFF3E031D7D2AB3
:1005060001300310F10CF00CFF3E031D842A710824
:100516007004031D8F2A902A722A7508F101F107CB
:100526007408F001F00708000310003003180130CA
:1005360083120313AD00AB1FA12AA22AAA2AAA0975
:10054600AB09AA0A0319AB0AAD010314AD0D2A08BB
:10055600F0002B08F100F2018E30FC007C08F3005D
:100566002D08FD007D08F4000A128A1195230A124F
:100576008A11700883120313AA007108AB0072086F
:10058600AC0008000310003003180130F600F31F1A
:10059600CD2ACE2AD62AF209F309F20A0319F30A5A
:1005A600F6010314F60DF11FD92ADA2ADF2AF0091B
:1005B600F109F00A0319F10A710870040319E42A13
:1005C600E52A152BF5010314F50DF42A0130031065
:1005D600F00DF10DFF3E031DEA2A0130F400740808
:1005E600F507F11FF72AF82AE92A71087302031D95
:1005F600FE2A70087202031C012B022B082B7008BE
:10060600F2027108031CF303F30201300310F10C2C
:10061600F00CFF3E031D092B0130F502031D142BC0
:10062600152BF82A7608031D192B1E2BF209F30940
:10063600F20A0319F30A7308F101F1077208F001CF
:10064600F00708000310003003180130F600F11F10
:100656002D2B2E2B362BF009F109F00A0319F10A7E
:10066600F6010314F60DF31F392B3A2B432BF2092F
:10067600F309F20A0319F30A0130F4007408F606C6
:100686000030F7000030F8007108700403194C2B95
:100696004D2B852BF5010314F50D5C2B0130031052
:1006A600F00DF10DFF3E031D522B0130F4007408CE
:1006B600F507F11F5F2B602B512B01300310F70D4F
:1006C600F80DFF3E031D612B71087302031D6D2B90
:1006D60070087202031C702B712B782B7008F202C3
:1006E6007108031CF303F302771401300310F10CB5
:1006F600F00CFF3E031D792B0130F502031D842B00
:10070600852B602B7608031D892B8E2BF709F8099C
:10071600F70A0319F80A7808F101F1077708F001DA
:10072600F00708007308031D992BA02B72087104AB
:100736007004031D9F2BA02BA72B0030F000003068
:10074600F1000030F200092CB42B0130F5007508D9
:10075600F30701300310F20CF10CF00CFF3E031D01
:10076600AD2BFE307205031DB92BBA2BA82BD12B4E
:100776000130F5007508F3070130F0070030031863
:100786000130F107003003180130F2070130031081
:10079600F20CF10CF00CFF3E031DCA2BFF30720564
:1007A600031DD62BD72BBB2BE22B0130F3020130D6
:1007B6000310F00DF10DF20DFF3E031DDB2BF11FB3
:1007C600E52BE62BD82B7318E92BEA2BF02BFF3001
:1007D600F0057F30F105FF30F2050310F30C7308C6
:1007E600F500F601F70110300310F50DF60DF70DC3
:1007F600FF3E031DF72B7508F0047608F104770811
:10080600F2047408031D082C092CF2170800780856
:1008160083120313A0007908A1007A08A20003102E
:10082600210D220DA3002308A900A908031D1C2CD5
:100836001D2C262C0030FB000030FA000030F90099
:100846000030F800A52C7808A0007908A1007A08E5
:10085600A20017300310A20CA10CA00CFF3E031D32
:100866002D2C2008A3002308A400F917FF30F80553
:10087600FF30F9050030FA057808A5007908A600CA
:100886007A08A700A8018E30A902A91F4B2C4C2C70
:100896006E2C2908803A8F3E0318522C532C5C2C60
:1008A6000030FB000030FA000030F9000030F8009C
:1008B600A52C01300310A80CA70CA60CA50CFF3E16
:1008C600031D5D2C0130A0002008A907031D6C2C18
:1008D6006D2C5C2C8E2C18302902031C732C742C66
:1008E6007D2C0030FB000030FA000030F9000030AB
:1008F600F800A52C892C0130A0000310A50DA60D2B
:10090600A70DA80DA00B802C0130A902A908031D74
:100916008D2C8E2C7E2C2408031D922C9D2CA50933
:10092600A609A709A809A50A0319A60A0319A70A69
:100936000319A80A2808FB002708FA002608F90068
:100946002508F8000800831203132E08B4002F08A8
:10095600B5003008B6000310350D360DB700370860
:10096600B800B808031DB82CB92CC02C0030AE0056
:100976000030AF000030B0008A2D3108B4003208D4
:10098600B5003308B6000310350D360DB70037082D
:10099600BD00BD08031DD02CD12CD82C0030AE00D4
:1009A6000030AF000030B0008A2D3D087B3EB40019
:1009B6003408B8072E08B4002F08B5003008B60072
:1009C60010300310B60CB50CB40CFF3E031DE42C1E
:1009D6003408B7003708BD003108B4003208B50046
:1009E6003308B60010300310B60CB50CB40CFF3E3D
:1009F600031DF62C3408B7003708BD068030B40056
:100A06003408BD05AF17B217FF30B105FF30B20588
:100A16000030B3050030B9000030BA000030BB002A
:100A26000730B4003408BC002E1C1A2D1B2D2B2DAC
:100A36003108B907320803110318320A0319242DA5
:100A4600BA07330803110318330A03192B2DBB0702
:100A560001300310B00CAF0CAE0CFF3E031D2C2D65
:100A660001300310B10DB20DB30DFF3E031D342D41
:100A76000130BC02031D402D412D172D0930B40055
:100A86003408BC002E1C482D492D592D3108B907B4
:100A9600320803110318320A0319522DBA07330814
:100AA60003110318330A0319592DBB07013003102C
:100AB600B00CAF0CAE0CFF3E031D5A2D01300310D7
:100AC600BB0CBA0CB90CFF3E031D622D0130BC02F3
:100AD600031D6E2D6F2D452D3908F0003A08F100E3
:100AE6003B08F2003808B4003408F3003D08B500AE
:100AF6003508F4000A128A1195230A128A11700821
:100B060083120313AE007108AF007208B00008002C
:100B16000F30831603138600831203138601831690
:100B260003138801831203138801831603138701B5
:100B36008312031387010A128A1155220A128A1197
:100B46008312031390018F018E0186140330BE00B9
:100B5600BE0BAB2D831203138610B12D061CB42DCC
:100B6600B52DB12D1014B72D0618BA2DBB2DB72DE6
:100B760010100F08BE00BF010830FE000310BE0DA6
:100B8600BF0DFE0BC12D0E083E04D7003F08D8004E
:100B96005808AB01AB075708AA01AA070A128A111F
:100BA60097220A128A11831203132A08B1002B080E
:100BB600B2002C08B3004430AE008B30AF003C309E
:100BC600B0000A128A11A6240A128A11831203138C
:100BD6002E08F8002F08F9003008FA000A128A11C8
:100BE6000A240A128A11790883120313D201D20742
:100BF6007808D101D1070030D9000030DA000A3078
:100C0600F0000030F1005208F301F3075108F20139
:100C1600F2070A128A1125230A128A117108831211
:100C26000313DA01DA077008D901D9070A30F00090
:100C36000030F1005208F301F3075108F201F20700
:100C46000A128A11C5220A128A1171088312031325
:100C5600C201C2077008C101C1070A30F0000030A6
:100C6600F1005A08F301F3075908F201F2070A12D4
:100C76008A1125230A128A11710883120313D401DB
:100C8600D4077008D301D3070A30F0000030F10012
:100C96005A08F301F3075908F201F2070A128A11FA
:100CA600C5220A128A11710883120313C401C407EC
:100CB6007008C301C3070A30F0000030F100540881
:100CC600F301F3075308F201F2070A128A112523EA
:100CD6000A128A11710883120313C601C607700827
:100CE600C501C5070A30F0000030F1005408F301D1
:100CF600F3075308F201F2070A128A11C5220A12F3
:100D06008A11710883120313C801C8077008C70146
:100D1600C70780300A128A112F220A128A118312FB
:100D260003134508303E0A128A1142220A128A111A
:100D3600831203134708303E0A128A1142220A120E
:100D46008A11831203134308303E0A128A11422283
:100D56000A128A11831203134108303E0A128A11BD
:100D660042220A128A11033083120313C00088300C
:100D7600BF005630BE00BE0BBE2EBF0BBE2EC00B34
:100D8600BE2E01300A128A112F220A128A1106304B
:100D96000A128A112F220A128A110C300A128A119B
:100DA6002F220A128A118312031306150330BE007E
:100DB600BE0BDB2E8312031386110F08BE00BF0184
:100DC6000830FE000310BE0DBF0DFE0BE52E0E080B
:100DD6003E04D7003F08D8005E08F101F1075D0820
:100DE600F001F0076430F2000030F3000A128A11B5
:100DF6006E220A128A11710883120313DE01DE07BE
:100E06007008DD01DD07FF30F0000330F1005E08F9
:100E1600F301F3075D08F201F2070A128A1125238E
:100E26000A128A11710883120313DE01DE077008A5
:100E3600DD01DD075808F101F1075708F001F00759
:100E46005E08F301F3075D08F201F2070A128A1140
:100E56006E220A128A11710883120313DE01DE075D
:100E66007008DD01DD070030DB000030DC000A30F1
:100E7600F0000030F1005E08F301F3075D08F201AF
:100E8600F2070A128A1125230A128A11710883129F
:100E96000313DC01DC077008DB01DB070A30F00016
:100EA6000030F1005E08F301F3075D08F201F20776
:100EB6000A128A11C5220A128A11710883120313B3
:100EC600CA01CA077008C901C9070A30F000003014
:100ED600F1005C08F301F3075B08F201F2070A125E
:100EE6008A1125230A128A11710883120313D60167
:100EF600D6077008D501D5070A30F0000030F1009A
:100F06005C08F301F3075B08F201F2070A128A1183
:100F1600C5220A128A11710883120313CC01CC0769
:100F26007008CB01CB070A30F0000030F1005608FC
:100F3600F301F3075508F201F2070A128A11252375
:100F46000A128A11710883120313CE01CE077008A4
:100F5600CD01CD070A30F0000030F1005608F3014C
:100F6600F3075508F201F2070A128A11C5220A127E
:100F76008A11710883120313D001D0077008CF01BC
:100F8600CF0780300A128A112F220A128A11831281
:100F960003134D08303E0A128A1142220A128A11A0
:100FA600831203134F08303E0A128A1142220A1294
:100FB6008A11831203134B08303E0A128A11422209
:100FC6000A128A11831203134908303E0A128A1143
:100FD60042220A128A11033083120313C00088309A
:100FE600BF005630BE00BE0BF62FBF0BF62FC00B50
:0A0FF600F62FA62D0A128A1100281A
:02400E00723FFF
:00000001FF
